:020000040800F2
:10000000B826002065020008D7220008651D0008F8
:10001000D5220008070500085D2500080000000043
:10002000000000000000000000000000CD010008FA
:100030003F050008000000001102000865230008C9
:100040007F0200087F0200087F0200087F0200088C
:100050007F0200087F0200087F0200087F0200087C
:100060007F0200087F0200087F0200087F0200086C
:100070007F0200087F0200087F0200087F0200085C
:10008000090500087F0200087F0200087F020008BF
:100090007F0200087F0200087F0200087F0200083C
:1000A0007F0200087F0200087F0200087F0200082C
:1000B0007F0200087F0200087F0200087F0200081C
:1000C0007F0200087F0200087F0200087F0200080C
:1000D0007F0200087F0200087F0200087F020008FC
:1000E0007F0200087F0200087F0200087F020008EC
:1000F0007F0200087F0200087F0200087F020008DC
:100100007F0200087F0200087F0200087F020008CB
:100110007F0200087F0200087F0200080D2400080B
:100120007F0200087F0200087F0200087F020008AB
:1001300000F002F800F03AF80AA090E8000C8244BF
:100140008344AAF10107DA4501D100F02FF8AFF29C
:10015000090EBAE80F0013F0010F18BFFB1A43F0A5
:10016000010318470884000028840000103A24BFC7
:1001700078C878C1FAD8520724BF30C830C144BF0C
:1001800004680C607047000000230024002500264E
:10019000103A28BF78C1FBD8520728BF30C148BFEA
:1001A0000B6070471FB51FBD10B510BD00F045F9BD
:1001B0001146FFF7F7FF02F0E2F900F063F903B42C
:1001C000FFF7F2FF03BC00F06BF90000224B196847
:1001D0000868B0E8F00F80F30988BFF36F8F4FF025
:1001E000000080F311884EF00D0E704700000000F3
:1001F00006480068006880F3088862B661B6BFF3FD
:100200004F8FBFF36F8F00DF00BF00BF08ED00E02E
:10021000EFF30980BFF36F8F0F4B1A6820E9F00FDF
:10022000106008B54FF0500080F31188BFF34F8F76
:10023000BFF36F8F04F002F84FF0000080F31188D5
:10024000BDE8084019680868B0E8F00F80F3098835
:10025000BFF36F8F704700BF24000020EFF30580CD
:10026000704700000948804709480047FEE7FEE75D
:10027000FEE7FEE7FEE7FEE7FEE7FEE7FEE7FEE756
:1002800004480549054A064B704700000B24000846
:1002900031010008B8200020B8260020B822002034
:1002A000B8220020032A40F2308010F0030C00F046
:1002B000158011F8013BBCF1020F624498BF11F8A0
:1002C00001CB00F8013B38BF11F8013BA2F1040259
:1002D00098BF00F801CB38BF00F8013B11F00303D1
:1002E00000F07980083AC0F0088051F8043B083AE1
:1002F00051F804CBA0E80810F5E7121D5CBF51F8D7
:10030000043B40F8043BAFF30080D20724BF11F850
:10031000013B11F801CB48BF11F8012B24BF00F8B5
:10032000013B00F801CB48BF00F8012B704702F0F9
:10033000FF0343EA032242EA024200F002B84FF010
:1003400000020429C0F0128010F0030C00F01B80A2
:10035000CCF1040CBCF1020F18BF00F8012BA8BFB0
:1003600020F8022BA1EB0C0100F00DB85FEAC17C74
:1003700024BF00F8012B00F8012B48BF00F8012B27
:1003800070474FF0000200B5134694469646203958
:1003900022BFA0E80C50A0E80C50B1F12001BFF43E
:1003A000F7AF090728BFA0E80C5048BF0CC05DF8A4
:1003B00004EB890028BF40F8042B08BF704748BFF2
:1003C00020F8022B11F0804F18BF00F8012B704766
:1003D00070477047704710B5203AC0F00B80B1E805
:1003E0001850203AA0E81850B1E81850A0E818506A
:1003F000BFF4F5AF5FEA027C24BFB1E81850A0E873
:10040000185044BF18C918C0BDE810405FEA827C8C
:1004100024BF51F8043B40F8043B08BF7047D207A3
:1004200028BF31F8023B48BF11F8012B28BF20F844
:10043000023B48BF00F8012B7047754600F02CF8CE
:10044000AE4605006946534620F00700854618B0C1
:1004500020B5FFF715FFBDE820404FF000064FF034
:1004600000074FF000084FF0000B21F00701AC46E9
:10047000ACE8C009ACE8C009ACE8C009ACE8C00908
:100480008D46704710B50446AFF300802046BDE8A6
:100490001040FFF794BE000000487047582000202D
:1004A00001491820ABBEFEE726000200704700009D
:1004B00070B5044600688168C943C90717D18168CF
:1004C00021F00101816000F08DFC05460AE000BFCB
:1004D00000F088FC401B022804D920688068C043D3
:1004E000C00706D020688068C043C007F0D0002055
:1004F00070BDA06A40F01000A062E06A40F0010008
:10050000E062012070BDFEE7014800F0BDB90000C7
:10051000A401002030B590F840500124AC40C56BD8
:100520006C60046863604368102B036803D09960B3
:100530000068C26030BD9A600068C16030BD70471D
:1005400072B6FEE7F8B50024009490F82420254602
:10055000012A12D0012280F824204A681F23072A8A
:100560000DD20668776B521E02EB820293409F43C6
:100570000B6893401F43776319E00220F8BD0668BB
:100580000D2A0AD2376BD21F02EB820293409F439F
:100590000B6893401F43376309E0F76A0D3A02EB9B
:1005A000820293409F430B6893401F43F7620A689F
:1005B000072306680A2A0AD3F7680A3A02EB4202BE
:1005C00093409F438B6893401F43F76008E037696F
:1005D00002EB420293409F438B6893401F43376175
:1005E0000A68102A01D0112A20D1124B02689A42BF
:1005F00017D193681B0219D4936843F400039360E6
:100600000968102912D10C490C4A0968B1FBF2F1B2
:1006100001EB8101490000E0491E00910029FBD156
:1006200004E0816A41F020018162012480F82450B5
:100630002046F8BD002401402000002040420F0069
:100640002DE9F04104004FF000057FD0A06A00269C
:1006500028B9E66284F82460204600F081F820463C
:10066000FFF726FFA16AC90600D420B1A06A40F0B6
:100670001000A0626AE0A16A21F4885141F00201F1
:10068000A162334923688B42E16904D1B1F5402F5F
:1006900001D14FF40021277B4FF4807C41EA4702CF
:1006A00061680A43A168614508D0012906D000218C
:1006B00094F814E0BEF1010F02D00AE06146F7E7BA
:1006C000C7B1A76A47F02007A762E76A47F00107AA
:1006D000E7625F6827F469470F435F6023689968A2
:1006E0001C4F394011439960A16861450BD0012925
:1006F00009D00CE0DFF860E0A7690EEB47370F4345
:1007000047F40061E5E7218A0D05A5F5801521680C
:10071000CB6A23F470032B43CB62216889680F4BAB
:100720001940914208D1E662A16A21F0020141F02C
:100730000101A162BDE8F081A06A20F0020040F052
:100740001000A062E06A40F00100E0620120F1E7E1
:10075000003C0140FDF7E1FF00E0FFFFFE0E1FFF40
:1007600000B585B0002100910191029103910068CC
:100770000E49884218D10E48816941F400718161A7
:10078000816901F400710491816941F01001816176
:100790008069694600F0100004900C20009003204E
:1007A0000190044800F01CFA05B000BD002401408F
:1007B000001002400010014070B500B3F9B1437958
:1007C000012B1ED0012646710223037105682C6897
:1007D00002F0100340F6FE729A409443D1E90021E2
:1007E0000A439A4022432A6001680A68C0249C4058
:1007F000A2430A60067100214171084670BD0120C4
:1008000070BD022070BD70B5040003D020790025B2
:1008100010B105E0012070BD6571204600F008F8B8
:1008200002202071256101202071002070BD000090
:1008300000B585B0002100910191029103910068FB
:100840000E49884218D10E48C16941F00051C1617A
:10085000C16901F000510491816941F00401816195
:100860008069694600F00400049010200090032085
:100870000190044800F0B4F905B000BD00740040D8
:1008800000100240000801402DE9F05FC16B0A68CA
:1008900001680B68046C4FF0040808FA04F8844DF2
:1008A000844E854FDFF814C2DFF81492DFF814A2EB
:1008B000DFF814B2DFF814E218EA020F65D05FEA3D
:1008C000437862D50A68920603D40A6822F00402CB
:1008D0000A60DFF8F0814FF48062016808F11408C3
:1008E00013011402414524D9A9420DD0B1420FD0C1
:1008F000B9421AD0614515D0494515D0514501D1AD
:10090000120312E0594501D104220EE0714501D1D4
:1009100040220AE06D4D1435A94206D06B4A2832B8
:10092000914201D11A4600E022466749091F0A6038
:1009300029E0A94213D0B14215D0B94220D0614577
:100940001BD049451BD0514502D14FF4800217E01E
:10095000414502D14FF0806212E0594501D1042295
:100960000EE0714501D140220AE0584D1435A942EC
:1009700006D0564A2832914201D11A4600E022465A
:100980004B4908394A60C16A71E04FF0020808FA21
:1009900004F818EA020F70D05FEA83786DD50A6810
:1009A000920606D40A6822F00A020A60012180F841
:1009B0002110DFF810814FF40072016808F114086B
:1009C00013011402414524D9A9420DD0B1420FD0E0
:1009D000B9421AD0614515D0494515D0514501D1CC
:1009E000120312E0594501D102220EE0714501D1F6
:1009F00020220AE0354D1435A94206D0334A283268
:100A0000914201D11A4600E022462F49091F0A608F
:100A100029E0A94213D0B14215D0B94220D0614596
:100A20001BD049451BD0514502D14FF4001217E0AD
:100A3000414502D14FF0007212E0594501D1022226
:100A40000EE0714501D120220AE0204D1435A94263
:100A500006D01E4A2832914201D11A4600E02246B1
:100A6000134908394A60002180F82010816A002962
:100A70001CD0BDE8F05F0847FFE70825A5401542F8
:100A800014D01A0712D50A6822F00E020A6090F8F4
:100A90004020C36B012101FA02F25A60816380F8A1
:100AA0002110002180F82010016BE0E7BDE8F09FE5
:100AB000080002401C000240300002404400024096
:100AC000580002406C000240080402401C0402402E
:100AD00030B560B11A4B026814219A4209D2194B01
:100AE0001344B3FBF1F18900016417490AE00120C6
:100AF00030BD134B5B421344B3FBF1F18900016439
:100B00000F490839C163022180F82110136843F6A8
:100B1000F0718B43F0E901142143D0E902452C43E5
:100B200021430469214344692143846921431943D2
:100B3000116000214163012242770177084630BDF0
:100B400008040240F8FFFDBF0000024070B50446F3
:100B500090F82000002501280CD0012084F8200006
:100B600094F821600020012E06D084F82000022590
:100B7000284670BD022070BD022684F82160A06363
:100B80002068066826F0010606602046FFF7C2FCD2
:100B9000E06A00282068016802D041F00E0106E0FA
:100BA00021F0040101602068016841F00A01016040
:100BB0002068016841F001010160D9E770B5044681
:100BC00000F010F90546601C02D004480078044487
:100BD00000F008F9401BA042FAD370BD14000020B9
:100BE0002DE9F84FDFF8C8910024A9F1040B234642
:100BF0000F2709F1040AABF1040ED1E00125A5404D
:100C000006EA0502AA4276D1DFF8A8C14E68A6EB33
:100C10000C0866452BD00DDC032E34D005DC36B332
:100C2000012E19D0022E2FD11BE0112E16D0122E1C
:100C30002AD119E0B8F5881F19D006DCB8F5803F35
:100C400015D0B8F5801F1FD111E0B8F5001F0ED0E8
:100C5000B8F5041F18D10AE0CB6815E0CB681B1D5E
:100C600012E0CB6808330FE0CB680C330CE08B68E4
:100C70002BB1012B4FF0080303D0456104E004239E
:100C800002E0056100E00023FF2A01D8064601E0EA
:100C900000F104064FEA840501D9A5F12005D6F834
:100CA000008007FA05FC28EA0C0803FA05F548EA73
:100CB0000508C6F800804D68ED0070D53E4DAE6960
:100CC00046F00106AE61AD6924F0030605F00105AA
:100CD00000953A4D06EB050CDCF80850A607360FD8
:100CE00007FA06F825EA0805DFF8D480404503D165
:100CF0004FF0000825E052E0DFF8C880404502D1FF
:100D00004FF001081DE0DFF8C080404502D14FF0F0
:100D1000020816E0DFF8B480404502D14FF0030826
:100D20000FE0DFF8AC80404502D14FF0040808E046
:100D3000DFF8A080404502D14FF0050801E04FF0F8
:100D4000060808FA06F848EA0508CCF808804D6855
:100D5000D9F80060ED024D4601D5164300E09643F8
:100D60002E604D68DAF80060AD02554601D5164395
:100D700000E096432E604D68DBF80060AD035D46F1
:100D800001D5164300E096432E604D68DEF8006002
:100D9000ED03754601D5164300E096432E60641CB2
:100DA0000A681646E2407FF429AFBDE8F88F0000DC
:100DB0000804014000001110001002400000014032
:100DC00000080140000C01400010014000140140E7
:100DD00000180140001C01400AB10161704709047C
:100DE000FBE7000001488068704700001400002005
:100DF0007047000070B5040025D094F83D00002530
:100E000020B984F83C50204600F066F9242084F88C
:100E10003D002068016821F001010160206801683F
:100E200041F4004101602068016821F40041016043
:100E300000F09CFB4D4A6168914201D84C4900E0AA
:100E40004C49884201D2012070BD4B492368B0FB58
:100E5000F1F15E6826F03F060E435E6063689342E0
:100E600006D94FF4967359434FF47A73B1FBF3F1FB
:100E70002368491C1E6A26F03F06314319626168E7
:100E8000914210D84900401EB0FBF1F2521CC2F34F
:100E90000B02042A01D2042022E0B0FBF1F0401C36
:100EA000C0F30B001CE0A268F2B301EBC10303EB3B
:100EB0000116431EB3FBF6F35B1C43F480431B0592
:100EC00049D092B301EBC10202EB0111401EB0FB0D
:100ED000F1F0401CC0F30B0040F4804040F40040AF
:100EE0002168CA694CF6FF739A431043C861D4E97C
:100EF000071001432068026822F0C002114301601C
:100F0000D4E9030101432068826848F2FF339A4321
:100F100011438160D4E9050108432168CA6822F0C1
:100F2000FF021043C86001E00EE016E0206801688F
:100F300041F0010101602564202084F83D00256313
:100F400084F83E50002070BD01EB4106431EB3FB08
:100F5000F6F35B1CB3E70120C2E701EB4101401E41
:100F6000B0FBF1F0401CC0F30B00B7E7A086010016
:100F700080841E0000093D0040420F0070470000C1
:100F8000F8B500250446009590F83D00202828D1AA
:100F90004C4846F2A8160068B0FBF6F000EBC0061D
:100FA00006EB0010202600900098401E009010D004
:100FB00020688069C0438007F6D594F83C0001287A
:100FC0000FD0012084F83C0020680768FF070AD092
:100FD0000DE044F8305F6673A573206940F020008F
:100FE00020610220F8BD076847F00107076020680C
:100FF000076827F400670760212084F83D0010206F
:1010000084F83E00256462626385608D20852E48E9
:10101000E0626164208DE8B3606BF0B12B498162BE
:10102000616B2B480863606BC562606B4563226827
:10103000238D1032616A606BFFF788FDB0B184F8D0
:101040003D6084F83E5054F8400F40F0100000BF5F
:1010500044F8040901202570F8BD84F83D6084F847
:101060003E5054F8400F40F08000F1E784F83C50C7
:101070002068416841F4407141602068416841F452
:10108000006141602068016841F48061016020686E
:10109000016800E003E041F48071016010E0206825
:1010A000016841F4806101602068016841F4807149
:1010B000016084F83C502068416841F4E06141607F
:1010C0000020F8BD200000200000FFFF9D1D00084B
:1010D000671D00087047000070B586B00025064601
:1010E000009501950295039500681E49884237D105
:1010F0001D4CA06940F00800A061A069694600F09D
:10110000080004904FF440700090122001900320DA
:1011100003901648FFF764FD1548416841F0E0610F
:1011200041F002014160E06940F40010E061E069D3
:10113000114C00F4001004900E4820601020C4E907
:1011400001058020C4E9030540016561C4E906503A
:101150002046FFF7BDFC08B1FFF7F2F97463666241
:1011600006B070BD0054004000100240000C014069
:10117000000001406C000240A4010020704770474D
:101180000248816802781144816070471400002091
:10119000074810B5016841F010010160032000F01C
:1011A000A7F80F2000F006F800F050F8002010BD5E
:1011B0000020024030B505461F4887B0C16941F0A4
:1011C0002001C161C06906A900F02000009001A8BB
:1011D00000F0ACF90498B0B100F0C8F9400017492C
:1011E000174AB0FBF1F11748491E0260416040F216
:1011F000E7320021C0E903218160816100F016FC23
:10120000040003D015E000F0B1F9E8E70D4800F064
:101210003BFC04000DD1372000F03CF8102D07D224
:1012200000222946372000F043F80748056000E017
:10123000012407B0204630BD0010024040420F009C
:101240000014004088020020180000200F4808B554
:10125000816941F001018161816901F00101009121
:10126000C16941F08051C161C069002200F0805025
:1012700000900F21901E00F01BF80548416821F0F6
:10128000E06141F00071416008BD000000100240C3
:1012900000000140002809DB00F01F0201219140FD
:1012A0004009800000F1E020C0F800117047000004
:1012B000F0B40E4B1B680C46C3F30223C3F10705C1
:1012C000042D00D90425191D072901D2002300E0AF
:1012D000DB1E012606FA05F1491E214099409E4079
:1012E000761E16403143F0BC01F039B90CED00E038
:1012F000064900F0070208684FF6FF03184040EA6D
:101300000220034A10430860704700000CED00E023
:101310000000FA052DE9F84305460078354CC00772
:1013200054D0E0690026C00008D4E06940F0805045
:10133000E061E069012600F0805000902E480168CD
:10134000C90512D40168804641F480710160FFF73D
:1013500049FD074605E000BFFFF744FDC01B6428B8
:1013600023D8D8F80000C005F6D5206A10F44070E4
:1013700021D0A98801F4407181421CD0206A1F4904
:10138000012220F440700A6000220A602062C00737
:1013900011D0FFF727FD074641F2883808E000BF6B
:1013A000FFF720FDC11B414502D90320BDE8F883AA
:1013B000206A8007F4D5206A696820F440700843E9
:1013C00020621EB1E06920F08050E061287880073B
:1013D00005D56068A96820F440400843606028781B
:1013E000C00605D56068696920F480000843606024
:1013F0000020DBE700100240007000404004424241
:101400002DE9F0470F46050061D0434E306800F0EB
:101410000700B84209D2306820F007003843306036
:10142000306800F00700B84251D128683B4C810772
:1014300012D5400703D5606840F4E060606028780A
:10144000000703D5606840F4605060606068A96878
:1014500020F0F000084360602878C00728D0686852
:10146000012810D02168022810D0890700292EDA1F
:10147000616821F0030101436160FFF7B3FC80461E
:1014800041F288390DE021688903EFE78901EDE732
:10149000FFF7A8FCA0EB0801494502D90320BDE8ED
:1014A000F0876068696800F00C00B0EB810FEFD145
:1014B000306800F00700B8420BD9306820F0070010
:1014C00038433060306800F00700B84201D0012096
:1014D000E5E72878400705D56068E96820F4E06012
:1014E000084360602878000706D56068296920F401
:1014F000605040EAC100606000F058F86168084A36
:10150000C1F30311515CC8400649086006480068F1
:10151000FFF750FE0020C2E700200240001002400A
:10152000124D000820000020180000200F22026049
:101530000C4A536803F003034360536803F0F0035D
:101540008360536803F4E063C36052684FF4E06360
:1015500003EAD20202610448006800F00700086054
:101560007047000000100240002002400448054976
:1015700000684968044AC1F30221515CC8407047C1
:101580002000002000100240224D000804480549B8
:1015900000684968044AC1F3C221515CC8407047E1
:1015A0002000002000100240224D00080E4A516821
:1015B0000E4801F00C03042B11D0082B0FD10C485E
:1015C000C1F38343C903C05C0AD55168084AC1F31B
:1015D0004041921E515C054A5043B0FBF1F0704708
:1015E00004494843704700000010024000127A008E
:1015F000024D000800093D002DE9F84F040070D0AD
:101600002078C04DC00749D06868C0F38100012828
:1016100007D06868C0F38100022809D16868C00358
:1016200006D52868800339D560680028E7D035E002
:101630006068B0F5803F0BD010B1B0F5A02F11D08D
:10164000286820F480302860286820F4802002E098
:10165000286840F480302860606890B1FFF7C2FBD2
:1016600006460AE0286840F480202860F0E700BFC2
:10167000FFF7B8FB801B642873D828688003F7D570
:101680000CE0FFF7AFFB064605E000BFFFF7AAFB43
:10169000801B6428F0D828688003F7D420789A4EFD
:1016A00080074FF001094FF0000839D5686810F045
:1016B0000C0F07D06868C0F38100022809D1686860
:1016C000C00306D42868800714D52069012808D1F2
:1016D00010E02069B0B1C6F80090FFF783FB074621
:1016E00005E00AE1FFF77EFBC01B0228C4D828688A
:1016F0008007F7D52868616920F0F80040EAC1004A
:1017000028600DE0C6F80080FFF76CFB074604E098
:10171000FFF768FBC01B022823D828688007F7D48E
:10172000207800072CD57948A169D9B1C0F800907C
:10173000FFF758FB074604E0FFF754FBC01B0228E5
:101740000FD8686A8007F7D571484FF4FA510068DE
:10175000B0FBF1F0009000BF0098411E0091FAD25A
:101760000EE080E0C0F80080FFF73CFB074604E095
:10177000FFF738FBC01B022875D8686A8007F7D4CA
:101780002078400760D5E8690027C00008D4E869E0
:1017900040F08050E861E869012700F08050009037
:1017A0005C480168C90513D40168834641F480711F
:1017B0000160FFF717FB824606E000BFFFF712FB50
:1017C000A0EB0A0064284ED8DBF80000C005F5D570
:1017D000E06801280AD008B1052813D0286A20F053
:1017E00001002862286A20F0040002E0286A40F024
:1017F00001002862E06841F2883B98B1FFF7F2FAF5
:1018000082460BE0286A40F004002862EEE700BF41
:10181000FFF7E8FAA0EB0A0159455AD8286A800771
:10182000F6D50CE0FFF7DEFA824605E0FFF7DAFABC
:10183000A0EB0A0159454CD8286A8007F6D41FB19D
:10184000E86920F08050E861E06988B36968C1F315
:101850008101022944D00228C6F8608004D0FFF735
:10186000C1FA044638E034E0FFF7BCFA074604E06A
:10187000FFF7B8FAC01B02282BD828688001F7D4DC
:10188000206AB0F5803F05D16868A16820F4003077
:1018900008436860D4E908010843696821F47411B9
:1018A00008436860C6F86090FFF79CFA044606E0BB
:1018B00025E000BFFFF796FA001B022809D8286828
:1018C0008001F7D51BE000BFFFF78CFA001B022850
:1018D00002D90320BDE8F88F28688001F4D40EE017
:1018E0000128F7D06868226A00F48031914204D15F
:1018F000616A00F47010884201D00120EAE70020FC
:10190000E8E700000010024000004242800442422A
:10191000200000200070004070B5040009D0606A0B
:10192000002540B125616561A56294F8510040B180
:101930000CE0012070BD6068B0F5827FF4D0E561F5
:10194000F2E784F85050204600F040F8022084F876
:1019500051002068016821F040010160A0882189C0
:1019600000F4827001F404410843A18901F400618C
:101970000843217C01F002010843217D01F00101AF
:101980000843218B01F400710843217F01F03801E5
:10199000084394F8201001F080010843218D01F4E0
:1019A0000051084321680860A069042101EA104041
:1019B000216848602068C16921F40061C1616565E2
:1019C000012084F85100002070BD000000B585B0F2
:1019D0000021009101910291039100680F49884212
:1019E0001AD10F48816941F480518161816901F404
:1019F00080510491816941F00401816180696946E7
:101A000000F004000490A020009002200190032028
:101A100003900448FFF7E4F805B000BD0030014032
:101A200000100240000801407047704710B50400E4
:101A300003D094F83D0010B107E0012010BD002054
:101A400084F83C00204600F01EF8022084F83D0097
:101A5000211D206800F0E0FC012084F8460084F895
:101A60003E0084F83F0084F8400084F8410084F888
:101A7000420084F8430084F8440084F8450084F868
:101A80003D00002010BD704790F83D10012901D0A5
:101A900001207047022180F83D100168CA6842F0B9
:101AA0000102CA6000680E4988420ED00D49884282
:101AB0000BD0B0F1804F08D00B49884205D00B49BC
:101AC000884202D00A49884204D1816801F00701A6
:101AD000062903D0016841F0010101600020704730
:101AE000002C014000340140000400400008004088
:101AF000000C0040704770B50446006801694FF063
:101B00000005C943890715D4C168C943890711D4A1
:101B1000E91E016101202077206880698007204646
:101B200002D0FFF7E7FF04E000F098F8204600F04D
:101B300096F8257720680169C943490717D4C16819
:101B4000C943490713D46FF00401016102202077D3
:101B50002068806910F4407F204602D0FFF7CAFF5A
:101B600004E000F07BF8204600F079F82577206843
:101B70000169C943090716D4C168C943090712D4CA
:101B80006FF008010161042020772068C069800798
:101B9000204602D0FFF7AEFF04E000F05FF82046D9
:101BA00000F05DF8257720680169C943C90617D49C
:101BB000C168C943C90613D46FF010010161082040
:101BC00020772068C06910F4407F204602D0FFF7DC
:101BD00091FF04E000F042F8204600F040F825773D
:101BE00020680169C943C90708D1C168C943C90749
:101BF00004D1891E0161204600F032F82068016995
:101C0000C943090609D4C168C943090605D46FF060
:101C1000800101612046FFF707FF20680169C94381
:101C2000490609D4C168C943490605D46FF040018B
:101C30000161204600F01EF820680169C943890649
:101C40000BD4C168C943890607D46FF02001016134
:101C50002046BDE87040FFF7E8BE70BD7047704792
:101C600000680349884201D1FFF78ABA7047000033
:101C700000140040704770B5040004D094F841008F
:101C8000002510B106E0012070BD84F840502046C8
:101C900000F024F8242084F841002068C16821F471
:101CA0000051C160204600F0FDFB2068016921F46D
:101CB000904101612068416921F02A014161206859
:101CC000C16841F40051C1606564202084F841007E
:101CD00084F842006563002070BD000030B585B017
:101CE00000240094019402940394006819498842E6
:101CF0002DD11948C16941F48021C161C16901F444
:101D000080210491816941F0100181618069134D46
:101D100000F0100004904FF48060009002200190C9
:101D20000320039069462846FEF75AFFE814CDE9E0
:101D30000004694628460294FEF752FF08484168AD
:101D400021F0300141F0E06141F01001416005B047
:101D500030BD00000048004000100240001001406B
:101D600000000140FEE710B5406A0021426B02B15D
:101D70009162826B02B191620268136823F48063FE
:101D800013604185202280F83D2080F83E10016CD0
:101D900041F010010164FFF72BF810BD2DE9F0416F
:101DA000446A94F83D2094F83E50E16A2068436804
:101DB00023F440734360636B002003B19862A36B0C
:101DC00003B19862212333EA02074FF022060CD0B8
:101DD00036EA020701D1202D07D094F83E20002AD0
:101DE00021D0628D012A20D024E021684D6825F49D
:101DF00000654D6060852820292A02D02A2A07D054
:101E00000CE0236384F83D002046FFF7B8F905E0B5
:101E1000266384F83D002046FFF7B0F9206841684A
:101E200041F440714160BDE8F0812268136823F4F9
:101E3000806313602268536823F44073536011F584
:101E4000803F06D0082904D0B1F12A4F01D02029C3
:101E500004D121680A6842F400720A6021684A6865
:101E600022F480524A6021684A6822F400624A6083
:101E70006085216C19B12046FEF7BAFFD3E7202117
:101E800084F83D1094F83E1084F83E00402905D0B7
:101E9000122020632046FFF771F8C4E72063204634
:101EA000FFF718F9BFE7012000F0ACFBFBE70000EB
:101EB00010B5012000F07CFB09A3002205210220BF
:101EC00000F076FB002000F073FB042000F070FBB4
:101ED000002804D1052000F06BFB0028F5D010BDD0
:101EE0006D656E752076322E300A42793A41646112
:101EF0006D0A62696C6962696C690A55503AE58AD3
:101F0000A0E6B2B9E593A6E5A4A7E781B0E78BBC4C
:101F100000000000014800F003B80000AC00002001
:101F20002DE9F843012580460024204601E0401CAD
:101F300040B258F8301009782E29F8D1401E46B228
:101F4000042000F035FB28B108EBC50040680028EC
:101F500045D08047052000F02BFB00283FD107200B
:101F600000F026FB404240B2A8B12118284445B2F7
:101F70004CB2B54200DD3546002D00DA0025032CB9
:101F800000DD0324B44200DD3446AC4200DD2C46C3
:101F9000002C00DA0024281B4FFA80F9012000F001
:101FA00007FB002709EB0700B0420BDC02213A07D0
:101FB00058F83030120E084600F0FAFA7F1CFFB2D3
:101FC000032FEFD92007020E10200090002180235C
:101FD000032000F0EDFA002000F0EAFAB0E7BDE8D7
:101FE000F88300000148FFF79BBF0000D4000020E9
:101FF0003EB5002411480094019402940E49846077
:10200000016004730475012505614FF4602144608B
:10201000C161FEF715FB08B1FEF792FA0C20CDE97D
:102020000005694602940548FEF78CFA002801D0A5
:10203000FEF786FA3EBD0000002401400C0100209E
:102040001CB500240C4900940A4801940860084615
:10205000FEF7D9FB08B1FEF773FA00940022694637
:1020600005480194FEF7A8FB002801D0FEF768FAA6
:102070001CBD0000007400403C010020094808B568
:10208000416941F0010141614069002200F0010015
:10209000009005211020FFF70BF9BDE80840102043
:1020A000FFF7F8B80010024010B5124A02211020C4
:1020B00000F0FEFA104C0F4A0221E0601832202096
:1020C00000F0F6FA0B4A20616C3A00210B4800F050
:1020D00029FB084A2060483A0021094800F022FB09
:1020E000044A6060243A0021064800F01BFBA0600F
:1020F00010BD0000D04C0008000000205D23000847
:102100004D230008A71E00082DE9F04F85B00024DC
:1021100039480094019402940394816941F01001BC
:102120008161816901F010010491816941F0200110
:102130008161816901F020010491816941F004010C
:102140008161816901F004010491816941F0080114
:1021500081618069DFF8A49000F0080004900022FB
:1021600008214846FEF738FEDFF894A04FF4805867
:10217000002241465046FEF72FFEDFF888B00022CD
:1021800004215846FEF728FE002208211E48FEF7CB
:1021900023FE4FF4604000901C48CDE901046946DD
:1021A0005046FEF71DFD08270226012500970396DD
:1021B000CDE9015469464846FEF712FDCDF800808E
:1021C0000396CDE9015469465046FEF709FD042007
:1021D000CDE90005CDE9024669465846FEF700FD07
:1021E00000970396CDE9015469460748FEF7F8FCCD
:1021F00005B0BDE8F08F000000100240000801406B
:102200000010014000140140000C014000001110BA
:102210000D4810B50B4901600C49416000214FF495
:1022200080428160C0E9031241618161C161016244
:10223000FEF7E0FD002803D0BDE81040FEF780B9AE
:1022400010BD00000054004050010020801A06001C
:10225000114810B50F4901604FF4827141604FF48D
:10226000004181600021C1604FF400720161C0E94A
:1022700005121822C0E90721416281620A21C16268
:10228000FFF74AFB002803D0BDE81040FEF758B91D
:1022900010BD000000300140E80100200C4810B5DE
:1022A0000A4901604FF4E1314160002181600C2254
:1022B000C160C0E904128161C161FFF7DCFC002844
:1022C00003D0BDE81040FEF73BB910BD0048004008
:1022D00040020020FEE7FEE710B5054800F09DFE35
:1022E000034800F0A6FFBDE810400A2001F0F2BE4E
:1022F000C41F002010B500220221042002F024F89F
:102300000C490D4B0D4A48600D490E4800F0F0FF96
:102310000D490C4800F0A4FF0A4801F048FB0021D9
:10232000084801F054FB074800F077FEBDE8104074
:10233000FFF7F0BDA400002097370008653A0008B9
:1023400064830008C41F00202A4D0008FFF7D2FF55
:10235000FFF7C2FF012000F055F9F9E7012000F076
:1023600051F9FBE710B5502080F31188BFF34F8F70
:10237000BFF36F8F02F0D4FA18B104494FF08050C8
:102380000860002080F3118810BD000004ED00E01B
:1023900030B595B028216846FDF7F3FF14210AA84F
:1023A000FDF7EFFF18210FA8FDF7EBFF012108044F
:1023B000CDE900100025029502240491CDE90740E3
:1023C0004FF4E01009906846FFF716F908B172B6AD
:1023D000FEE70AA90F2081E831004FF48060CDE9C3
:1023E0000D0502210AA8FFF70BF808B172B6FEE747
:1023F0004FF4004011900F940FA8FEF78BFF0028B8
:1024000001D072B6FEE715B030BD70470148FFF746
:1024100072BB000088020020F0B502681C4B1D4D05
:102420001D4E1E4F1E4C4FF0804C984209D0A042CA
:1024300007D0604505D0A84203D0B04201D0B842D1
:1024400004D122F0700E4A6842EA0E02984209D086
:10245000A04207D0604505D0A84203D0B04201D0C9
:10246000B84203D122F44075CA682A434D6922F06C
:1024700080022A4302608A68C2620A6882629842C5
:1024800001D0A04201D10969016301214161F0BD80
:10249000002C01400004004000080040000C0040F7
:1024A0000034014070B5044600680169E26821F417
:1024B0004051114301612169A068084361690843E3
:1024C0002168CA6841F20C639A430243CA602068DB
:1024D0004169A26921F44071114341611E4920689C
:1024E000884202D1FFF752F801E0FFF73FF800EB16
:1024F000C00101EB0012606864218000B2FBF0F3C0
:10250000B3FBF1F36FF018067343B2FBF0F5B2FBC7
:10251000F0F605EB8305322303EB0515B5FBF1F56A
:10252000B6FBF1F605F0F00505EB0615B2FBF0F68B
:10253000B2FBF0F0B0FBF1F06FF01802504306EB85
:10254000800003EB0010B0FBF1F0216800F00F00F9
:102550002844886070BD000000380140FEE709078C
:10256000090E002804DB00F1E02080F80014704719
:1025700000F00F0000F1E02080F8141D7047FEF716
:1025800007FEFFF705FFFFF7BFFDFFF777FDFFF73A
:102590002FFDFFF755FDFFF73BFEFFF759FEFFF755
:1025A0007DFE00F049F8FFF77FFD00F061F8FEE7DF
:1025B0000FB438B500249DF8100004281BD2DFE8C2
:1025C00000F00202060F0E4800F027FD13E005AAF6
:1025D00092E80B008AB281B2094800F0DDFD0AE002
:1025E00005AD95E80F009BB2009393B28AB281B219
:1025F000034800F021FD204638BC5DF814FB0000C4
:10260000C41F002010B5EFF3058149B9EFF3108125
:1026100031B908490968022905D1EFF3118111B1D7
:102620006FF0050403E0002408B101F053FD2046DB
:1026300010BD000074000020EFF3058058B9EFF3DF
:10264000108040B909490868022801D030B109E07A
:10265000EFF3118030B16FF0050070470120086082
:10266000002070474FF0FF307047000074000020DA
:1026700010B5EFF3058060B9EFF3108048B90B494E
:102680000868022802D0012806D00BE0EFF3118081
:1026900040B16FF0050010BD0220086001F082FD1E
:1026A000002010BD4FF0FF3010BD0000740000206E
:1026B000F8B514464FF00005EFF305826ABBEFF35F
:1026C000108252BB164A1268022A02D1EFF311821D
:1026D0001ABB10B309B3ACB1D4E902326BB1502AC2
:1026E0001BD32269CAB1676900FB01F6B74214D354
:1026F0000025009501F04CFE07E072B9226962B92D
:10270000626952B9002201F01FFE050005D00CB12C
:10271000216800E0002101F0A7FC2846F8BD000078
:1027200074000020F0B585B04FEA01034FF00004BB
:10273000EFF305810394A1BBEFF3108189BB21491D
:102740000968022902D1EFF3118151BB48B38026F9
:1027500018218DF8104004AD42B3176807B13D460B
:1027600097691FB139467F1E382F02D21779FF07AC
:1027700002D0002005B0F0BD576907B1BE08D2F8FD
:1027800008C0BCF1000F0DD0D4685C2C18D31269BE
:102790003AB137B18DE806103246294602F081F889
:1027A00003900DE0D7685FB912694AB903AACDE971
:1027B0000012B2B2294602F047F8012800D0039473
:1027C0000398D7E7740000202DE9F041134C0F4621
:1027D000054666692068001D01F04CFB681C07D1A6
:1027E00037B12168BDE8F0410D48091D01F092BBE9
:1027F00020683544B5424560216805D2A068BDE82F
:10280000F041091D01F06EBB6068091D01F06AFB13
:10281000206B854200D22563BDE8F08124000020B2
:10282000C00700202DE9F041054601F07FFB2D4C4B
:102830002069401C206120682B4F10B1E06930B343
:102840002BE025602069012827D1002606EB8600B1
:1028500007EB800001F038FB761C382EF6D32348B6
:1028600001F032FB2148143001F02EFB1F482830C4
:1028700001F02AFB1D483C3001F026FB1B4850307C
:1028800001F022FB194860601430A06005E0206868
:10289000E96AC06A884200D82560E06A401CE062AC
:1028A0006864E86AA169884200D9A06100EB8000F1
:1028B00007EB8000291D01F02DFB01F057FBE069BB
:1028C00000280CD02068E96AC06A884207D208490B
:1028D0004FF080500860BFF34F8FBFF36F8FBDE89C
:1028E000F081000024000020100300207007002069
:1028F00004ED00E038B501F019FB104CA068C8B930
:102900000F4801F0E1FA0E48143001F0DDFA0C48EE
:102910002060143060600A4B00202833009003F1DF
:10292000500210210A2001F033FDA06010B105A172
:1029300001F09AFBBDE8384001F018BB60000020B0
:10294000D4070020546D72510000000030B4026CB6
:102950000B46002A0BD0C1681144C1604468A142F3
:1029600001D30168C16030BC1846FDF79BBC30BC88
:1029700070472DE9F041856B174604460026026C2E
:1029800082B1C7B1E068FDF78DFCE168206C091ADF
:10299000E1602268914202D26168081AE060022F69
:1029A00016D017E02068A8B9606802F01DF8064646
:1029B000002060600EE0A068FDF774FC216CA06848
:1029C0000844A0606168884204D32068A06001E0E8
:1029D00005B16D1E6D1CA5633046BDE8F08110B5D4
:1029E000044690F8590058B101280CD002280FD0A5
:1029F000502080F31188BFF34F8FBFF36F8FFEE736
:102A0000206B01F0C7FA2046BDE8104001F0C2BAC1
:102A100010BD000010484FF44061420706D0C01DB1
:102A20000D4920F00700411AC1F540610B4A00230F
:102A30000144C2E900030839103A21F0070111608E
:102A40004B600B600B1AC0E9001393604FF000401D
:102A50005360D06070470000A40F00208800002061
:102A6000144E154CA6F29C474FF08058DFF84C905E
:102A700012E000BF01F05AFAF068C568281D01F0A5
:102A8000F9F92069401E2061E068401EE06001F015
:102A90006DFA2846FFF7A3FFE0680028EAD13868FE
:102AA0000128F9D9C9F80080BFF34F8FBFF36F8FAA
:102AB000F2E70000AC0700202400002004ED00E055
:102AC00070B51D46049C51B1C4F80020C4E90F0143
:102AD0000121204601F090FC84F84C5070BD246028
:102AE000F4E72DE9F0470E46DDE9098417468246F2
:102AF00091009946089DA522206BFDF718FC6FF008
:102B00000301206B01EB8701084420F007077807D9
:102B100007D0502080F31188BFF34F8FBFF36F8F22
:102B2000FEE72218315C82F83410315C11B1401C90
:102B30001028F6D3002684F84360382D00D33725BB
:102B4000E562C4E91356201D01F0C9F904F118002B
:102B500001F0C5F92461C5F138006462A0616665C1
:102B600084F858604A465146384600F03BFA2060E7
:102B7000B8F1000F01D0C8F80040BDE8F0870000B0
:102B800030B5114900E011460A688242FBD34B6818
:102B90005C18844203D14068184448600846436882
:102BA0001C18944209D1084C103C2468A24209D058
:102BB00052681A4442600A6812680260814200D07A
:102BC000086030BD0460F9E78800002070B500247B
:102BD00041600B4D0061914206D8D11A8269914241
:102BE00006D2011D686807E09A4203D2994201D3D8
:102BF000012403E0011D286801F074F9204670BD2E
:102C00006000002010B5044601F090F9A06B28B1D7
:102C10005FF0000401F0AAF9204610BD0124F9E795
:102C200030B589B0304D55E00498002806DADDE96A
:102C30000601059A9047049800284BDB069C6069C2
:102C400010B1201D01F016F902A800F0B9F80246F3
:102C500004980A283ED2DFE800F00505053D263736
:102C600005053D260598A169034601442046FFF766
:102C7000ADFF00B3616A20468847E069012829D189
:102C8000002000900598A1690023421819462046AB
:102C900001F0B4FF78B9502080F31188BFF34F8F53
:102CA000BFF36F8FFEE70598A06128B18118134626
:102CB0002046FFF78BFF0DE0502080F31188BFF313
:102CC0004F8FBFF36F8FFEE794F82C0010B92046AA
:102CD00001F060F9002204A9A86801F0DFFC0028D7
:102CE000A2D109B030BD0000600000202DE9FC41F8
:102CF0000F46054601F09AFA01A800F061F8044673
:102D0000019818B101F0E8FEBDE8FC81224EAFB198
:102D100070680068A8B30027291B3A46B06801F024
:102D2000B7F901F0D9FE0028EED11C494FF08050D0
:102D30000860BFF34F8FBFF36F8FE5E7A542EBD875
:102D400001F0CAFE30682746C068C468201D01F043
:102D500091F8E069012810D1A0692B4641193A4643
:102D60002046FFF733FF40B10020034601460090A4
:102D70002A46204601F042FF20B1616A204688477A
:102D8000C2E707E0502080F31188BFF34F8FBFF3F5
:102D90006F8FFEE70127BFE76000002004ED00E031
:102DA00006484168096829B14168C968C968496825
:102DB000016370474FF0FF31FAE700002400002064
:102DC00070B5054601F0A6FD064E04463069844202
:102DD00003D200F009F8012000E00020286020461E
:102DE000346170BD60000020F8B5194D1FE0C06867
:102DF000C4680668201D01F03DF8616A20468847D6
:102E0000E069012813D1A0693044B04206D9246199
:102E10006060211D286801F065F808E00020034685
:102E2000014600903246204601F0E8FE38B128689D
:102E300001680029DBD16968C5E90010F8BD5020A0
:102E400080F31188BFF34F8FBFF36F8FFEE7000051
:102E50006000002008484068401C4FF0500080F39C
:102E6000118804D0BFF34F8FBFF36F8FFEE7BFF31E
:102E70004F8FBFF36F8FFEE790000020074C206854
:102E8000016841B1C0680021D0F80000FFF72EFFB3
:102E9000FFF7C6FEF3E701210020F7E760000020FE
:102EA0002DE9F041044601F041F894F9455004F150
:102EB000240609E0606A48B1304601F0D5FD08B14A
:102EC00001F036F96D1E6DB2002DF3DC4FF0FF36C8
:102ED00084F8456001F04AF801F028F894F944506C
:102EE00004F1100709E0206948B1384601F0BCFD43
:102EF00008B101F01DF96D1E6DB2002DF3DC84F8F0
:102F00004460BDE8F04101F031B800002DE9F04126
:102F10000546002701F08AF9314E306808B9FFF7FD
:102F200079FDF06805424BD1C5B3083568070ED06E
:102F300005F00700C0F108000544680707D05020DD
:102F400080F31188BFF34F8FBFF36F8FFEE72DB370
:102F50007068854234D82248103001460C6801E080
:102F600020460C466168A94202D221680029F7D1A7
:102F700031688C4224D00768216801606068083796
:102F8000411B10290FD96019420708D0502080F347
:102F90001188BFF34F8FBFF36F8FFEE710E04160E2
:102FA0006560FFF7EDFD61687068401A7060B26897
:102FB000904200D2B060F06801430020C4E90001F3
:102FC00001F08AFD780707D0502080F31188BFF305
:102FD0004F8FBFF36F8FFEE73846BDE8F0810000EA
:102FE0007800002010B5031F4FF080741C601B1F79
:102FF00021F001011960191F024B0B601439403890
:103000000A6010BD552E000801680A7C90F838103F
:10301000406B5143C900FDF792B910B5044600F06A
:10302000C3F8204600F0E6F80028FAD12046BDE8B3
:103030001040002100F006B92DE9F8438146089CB4
:103040001E46101980B20090881983B21546884632
:10305000484600F0B7F800280ED00027002C0BD00F
:1030600033462A4641464846009700F03FF86D1C1B
:10307000641EADB2A4B2F1E7BDE8F8832DE9F041DA
:10308000044690F870001F4615460E4630B10128E0
:1030900009D002280CD0032815D10FE0E16D20469D
:1030A0008847284408E0E16D20468847301A09E047
:1030B000E16D20468847281A85B204E0E16D20467C
:1030C0008847304486B22846A4F86460A4F86600B5
:1030D00039460025204600F001FB010003D02046C0
:1030E00000F02CFA85B22846BDE8F0813FB581B0EA
:1030F000044690F88C00089900283AD0BDF81000DA
:10310000002836D0012811D9022902D0032907D07E
:103110000CE0BDF80820101A401CADF8080005E0CE
:10312000BDF80C20101A401CADF80C0011F0010580
:1031300021D0B4F84810BDF80800814219D8B4F87D
:103140004A10814215D9B4F84E30B4F84C2004A985
:103150000DF10C0000F064F900280AD00095206BF6
:10316000BDF81030BDF80C208568BDF80810204669
:10317000A84705B030BDB4F84C10BDF80C00814232
:10318000F7D8B4F84E108142F3D9B4F84A30B4F805
:10319000482004A902A8DDE730B4024C446030BCEA
:1031A00000F06BB9E53D000810B5044690F89300B7
:1031B00010B12046FFF728FF2046BDE8104000214F
:1031C00000F040B870B50D461E460446B0F84E10EB
:1031D000B0F84C00049B00F0EEFA002809D0B4F8D7
:1031E0004A10B4F8480033462A46BDE8704000F063
:1031F000E2BA70BD70B5044600F06DFB94F839007A
:1032000094F838100844C5B22068407CA84204D81D
:10321000204600F0D4FB002070BD94F8930010B15C
:103220002046FFF7F1FE2946204600F00BF801206A
:1032300070BD10B5044600F04EFB2046BDE81040BE
:1032400000F0BDBB10B5044680F83910006B016872
:1032500020468847206B41682046BDE8104008475B
:1032600010B50446806D884209D004F17400A16550
:1032700000F0FCFA2046BDE8104000F055B810BD43
:103280000149C16570470000F13400080021A0F831
:103290005010A0F854104FF6FF71A0F85210A0F88B
:1032A0005610016B4968084770B50446002504981C
:1032B000A565E362616384F8382084F8395084F8A6
:1032C0006D5084F8915084F88D50012184F892104B
:1032D00084F8931020630168204688472046FFF752
:1032E000D5FF2046FFF7CCFF84F8705070BD00007A
:1032F0007CB50C46009313460546084A084900F081
:103300006EFB01A800F0ACFA0146064B00949DF854
:1033100004202846FFF7C8FF7CBD0000753B00086D
:103320009D3C0008D137000810B5816D00291AD0E6
:1033300090F9813080F88E3090F9822080F88F20CB
:1033400090F88D1000290ED001290DD090F97E4003
:1033500090F980100C449C4201DD80F88E408A4236
:1033600001DD80F88F1010BD90F983108B4201DAD7
:1033700080F88E1090F98410F1E72BB1012B05D065
:10338000022B06D0104402E0084400E0801A80B20C
:103390007047401AFBE72BB1012B05D0022B06D05A
:1033A000401A02E0104400E0084480B27047801ADE
:1033B000FBE738B50446B0F856000090B4F8523038
:1033C000B4F85420B4F850102046FFF7FBFE18B3B1
:1033D000012084F88C00B4F84810B4F85000814201
:1033E00001D2A4F84800B4F84A10B4F8520081425F
:1033F00001D9A4F84A00B4F84C10B4F85400814242
:1034000001D2A4F84C00B4F84E10B4F85600814232
:1034100001D9A4F84E0038BD002084F88C0038BDD6
:1034200030B504880D882544ADB2AC4205D99C4224
:1034300002D25D1EADB200E014469C4201D295421C
:1034400001D8002030BD944200D214469D4200D9DC
:103450001D460480281B0880012030BD38B5C58F6B
:10346000049C0094521BC46A92B2A04738BD38B580
:10347000049C0094FFF7F2FF38BD2DE9F0471C468D
:1034800091468846064600F0A9FC00254FF6FF77D6
:1034900072682178304690470346B84225D0641CB4
:1034A000A3F57F40FE38F3D04A4641463046FFF749
:1034B000E5FD96F8701031B1012907D0022908D036
:1034C00003290FD10AE008EB000104E009EB000139
:1034D00006E0A8EB00011FFA81F803E0A9EB000168
:1034E0001FFA81F9284485B2D2E72846BDE8F08763
:1034F0000020704710B50C4600F006F80122641E4B
:10350000A240801A40B210BD30B50568047B2A780D
:10351000E2406318DBB2082B09D36D1C05602D78DF
:10352000C4F10804A5401543083BEAB2DBB201240C
:103530008C40641E14400373204630BD2DE9F843CF
:10354000054600F1600400F00CF915F96B6F204698
:10355000E97BFFF7CFFF8146297C2046FFF7CAFFB2
:103560000746697C20466B3DFFF7C4FF804694F90F
:103570000A00002857DDF019404247B2237CA0889A
:103580003A464946FFF7F9FEA080237C3A46E08898
:103590004946FFF700FFE080A188277C02460B46E2
:1035A00037B1012F0AD0022F40D0032F0FD146E0B0
:1035B00094F90A7030443B449BB207E0891B491CD4
:1035C00094F90A705B1C89B29BB2384480B20090B7
:1035D0002846FFF7F7FD30B30020207284F8090079
:1035E00095F876102046FFF78FFF814695F8771003
:1035F0002046FFF789FF074600224946284600F08B
:1036000027F801223946284600F022F801212046F9
:10361000FFF77AFF0028EFD194F90900B042DFDB11
:10362000A07B85F892004046BDE8F88394F90A70C3
:103630005B1CC91B491C89B29BB2921B04E094F924
:103640000A7033449BB2D21B521C92B2401CBDE79D
:103650002DE9F74F84B00D46049C94F8687094F8F7
:1036600069806034A07AC01BC6B20196B54200D210
:1036700001954FFA88F279B2A088B4F806B0237C9D
:1036800092468946FFF779FE0290237C52464946CE
:103690005846FFF780FE0246069808B1A17B02E07B
:1036A000607B50B9E17B049880F89210207C0090F8
:1036B000DDE901310498FFF719FDB54207D3A81BD6
:1036C000C5B208F10100002700F0FF08CAE7781929
:1036D000207284F8098007B0BDE8F08F70B50D4600
:1036E0000146806D1730FF2D10D8612D02D3B1F83F
:1036F000881003E0412D02D3B1F8861008444178C8
:1037000019B30278AA42F9D1801C70BDB1F88A10B1
:103710000C1826460021304600F019F80444022116
:10372000304600F014F8361DA842F3D34FF6FF726E
:10373000207802EA00216078084306D0A84201D12F
:10374000E01C70BDA0780444F2E7002070BD08447E
:103750004FF6FF720178407802EA0121084480B2F6
:10376000704730B5054600F1600401660020207303
:1037700015F8781F2046FFF7C7FEA072697820462B
:10378000FFF7C2FEE072A87EA07310B10020E073C4
:1037900030BD0120FBE710B51046282909D02929A2
:1037A00005D04C2905D04D2903D0002010BDFDF7D0
:1037B00005FA012010BD8A4205D2834201D89A42FF
:1037C00003D9012070478342F9D8002070470000D8
:1037D000F0B502F007060124B440002590F892E00D
:1037E000E7B2DDF814C02C46BEF1010F01D83D460A
:1037F00000D03C46076822F00702BCF1000F3F7C76
:1038000007FB02F7BAB2476B3A44114409D1087872
:103810005B1E284360401B0401F8010B1B0CF6D112
:10382000F0BD0A78761C2A436240A3F101030A70B6
:1038300016F007069BB206D06A06150E6206140E35
:10384000002BEED1F0BD428F114490F89220012A56
:1038500003D800BF4FF00105F2D04FF00104EFE7AD
:103860000821017000487047A41B002070B5054670
:1038700008782870487868708878A870C878E870E8
:10388000087928714879687188790C46A871E079BF
:10389000E871207A2872607A6872A07AA872E07A59
:1038A000E872207B2873607B6873A07BA873E07B41
:1038B000E873207C287411212046FFF748FF6882B6
:1038C00013212046FFF743FFA88215212046FFF76A
:1038D0003EFFE88270BD2DE9F843064690F8387047
:1038E00090F83950006800244FF6FF7890F8119056
:1038F000316830462A460B7C716B04FB03FC1FFACF
:103900008CFC08EACC0C61440091002100F040F8E6
:10391000641C6D1CE4B2EDB2BC4201D24D45E7D34C
:10392000BDE8F883F0B590F838204FF6FF750368CE
:1039300005EAC2018187197C05EAC101418790F837
:10394000394005EAC401C1875E7CA718B74201D996
:10395000321B92B205EAC20220F8401F1144418096
:10396000998A8180D98AC180F0BDFFF7DBBF002131
:10397000A0F84810B0F84410A0F84A10B0F8401071
:10398000A0F84C10B0F84210A0F84E10FFF711BD8F
:103990001CB58DF805108DF80620049C8DF80430B8
:1039A0000094012284686B460F21A0471CBD30B4EF
:1039B00084680023A44630BC1A460A21604730B40C
:1039C00084680023A44630BC1A461021604730B4F6
:1039D00084680023A4460A4630BC0B2160472DE9C9
:1039E000F04115460E460446069F00F009F867614F
:1039F000A660C4E903532046BDE8F04100F012B8C8
:103A0000002140F8081B064A026042608260C260E2
:103A1000C17681770161FF21017780F8201070471E
:103A2000A13D000830B484680023A44630BC1A4687
:103A30000921604730B404690023A44630BC1A460B
:103A40001921604713B50122046901AB1721A04772
:103A50001CBD30B404690023A44630BC1A461821AA
:103A60006047000070B514291FD0114C172905D0EC
:103A7000182910D0192911D0002070BD0D4907E078
:103A8000207813F8015B0D54401C521E2070D2B2F6
:103A9000002AF5D109E00020207006E090F82410FB
:103AA0002378044A0448FDF76BFA012070BD00003A
:103AB000A4000020A41F00205001002030B4C468DE
:103AC0000023A44630BC1A461921604730B4C468AC
:103AD0000023A4460A4630BC1621604730B4C468AF
:103AE0000023A4460A4630BC1521604730B4C468A0
:103AF0001346A4460A4630BC17216047F8B50C4669
:103B00004FEA000514F8011B182924D00EDC1529F2
:103B100019D0162917D0172923D120788DF8000045
:103B20006A4601212846FFF7E1FF0AE0192912D071
:103B3000FE2916D122788DF800202921284600F090
:103B400031F9641CDEE722788DF80020EE6800234E
:103B50002846B047F5E70023EE681A462846B047E6
:103B6000D0E7F8BD30B4C4680023A44630BC1A4680
:103B7000182160472DE9F041DFF8B0801446064671
:103B8000A1F11402002798F800001D46062A4AD227
:103B9000DFE802F02F03161B3E4310B13046FFF75B
:103BA00049FF3046FFF755FF00213046FFF74AFF37
:103BB00021463046FFF746FF012088F8000029E043
:103BC00021463046FFF73EFF24E050B13046FFF774
:103BD00031FF06E01821304600F0EAF8183CE4B264
:103BE0001835182C2A46F5D82146304600F0E0F862
:103BF0000EE096F82400FF2802D1782086F82400F1
:103C000037692B4622463046BC46BDE8F041604746
:103C100088F800700120BDE8F0810028F8D0304617
:103C2000FFF708FFF4E70020F5E700009C00002004
:103C300070B50023456904461A462821A847002389
:103C4000E5681A4614212046A84701224B21204648
:103C500000F0A8F8206829210279204600F0A2F897
:103C600000224B21204600F09DF82068292102798E
:103C7000204600F097F801224B21204600F092F8F0
:103C80002068292142792046BDE8704000F08AB8BA
:103C90000160897C80F822107047000070B50C46E6
:103CA000054600F019F888B9092C0BD00A2C01D070
:103CB000002070BD2846FFF7BBFF05492846FFF7E7
:103CC0001DFF03E003492846FFF7E2FF012070BD16
:103CD00096830008988400082DE9F0411E4614469A
:103CE00005460B2908D00D290ED00E291ED00F290C
:103CF00027D00020BDE8F0811AB12849FFF7FEFE69
:103D00004AE02649491FF9E74AB124490C31FFF737
:103D1000F5FE286890F8130085F822003CE01F4962
:103D2000491DFFF7EBFE2868807CF5E7FFF71AFFD7
:103D300081212846FFF7D2FE21462846FFF7C6FE1E
:103D400027E0FFF70FFF707995F8221001EBC00014
:103D5000C7B240212846FFF7C1FE102040EA1711E4
:103D60002846FFF7BBFE07F00F012846FFF7AEFE1F
:103D7000B07940F0B0012846FFF7A8FE30793268EC
:103D8000C006010E2846FFF7B1FE641E14F0FF04C2
:103D9000F4D12846FFF792FE0120ABE775830008B7
:103DA0000020704730B444690023A44630BC60470B
:103DB0002DE9F04115460E460446FFF74AFE402124
:103DC0002046FFF73FFE27692B4632461721204643
:103DD000B8472046BDE8F041FFF72CBE002180F82F
:103DE0002610704730B54FF6FF72A9B30A293FD0AD
:103DF00090F82630541E7BB15B1E13F0FF0380F851
:103E00002630058C01F03F0102EA851242EA0102E8
:103E100002842DD0204630BDFC2905D3052280F830
:103E2000262001F001011FE0F82905D3042280F8C3
:103E3000262001F0030117E0F02905D3032280F8C2
:103E4000262001F007010FE0E02906D3022280F8C6
:103E5000262001F00F0107E00AE0C02906D3012265
:103E600080F8262001F01F010184D3E7084630BD09
:103E7000104630BDD0E9013201699A60D0E90123D2
:103E80005A604A68824201D182684A600022026117
:103E90000868401E0860086870470000034B036014
:103EA00003F15C000860802010607047EC0800207F
:103EB000044B036003F15C0008604FF480701060F5
:103EC00070470000480B002000F108014FF0FF325E
:103ED000C0E90112C1600161002101607047002149
:103EE0000161704730B50B685A1C02D000F108021E
:103EF00002E0026904E02246546825689D42FAD92E
:103F000053684B6099608A60516008610168491C80
:103F1000016030BD42684A6093688B609368596065
:103F2000916008610168491C01607047502080F36E
:103F30001188BFF34F8FBFF36F8F0A494868401C49
:103F4000486001280CD10848006810F0FF0F07D026
:103F5000502080F31188BFF34F8FBFF36F8FFEE7C0
:103F6000704700009000002004ED00E00849486818
:103F700028B1401E486001D180F31188704750205D
:103F800080F31188BFF34F8FBFF36F8FFEE7000000
:103F90009000002070B5002827D0144DA0F108042F
:103FA0006168E868014207D1502080F31188BFF3AF
:103FB0004F8FBFF36F8FFEE722683AB1502080F336
:103FC0001188BFF34F8FBFF36F8FFEE781436160AE
:103FD00000F02CF960686968084468602046FEF7C4
:103FE000CFFDBDE8704000F077BD70BD78000020C7
:103FF0004FF0E020002101618161054964220968D8
:10400000B1FBF2F1491E41610721016170470000D7
:104010002000002010B5FCF721F9114910280ED31B
:1040200000F1E02090F8F0030A78904207D2502087
:1040300080F31188BFF34F8FBFF36F8FFEE70948FE
:104040000068896800F4E060884207D9502080F356
:104050001188BFF34F8FBFF36F8FFEE710BD0000D5
:10406000900000200CED00E010B5084B002200BFCE
:1040700053F832401CB1521C082AF9D310BD43F842
:10408000321003EBC201486010BD0000D0020020D6
:1040900070B515460E460446FFF748FF94F94410E4
:1040A0000020491C01D184F8440094F94510491CB2
:1040B00001D184F84500FFF759FFA06B28B92A46C3
:1040C000314604F1240000F051F82046BDE870406C
:1040D000FEF7E6BE10B5020014D00F48806B38B171
:1040E000502080F31188BFF34F8FBFF36F8FFEE72F
:1040F00000F09CF800211046FEF766FB00F0ECFC97
:10410000002807D105494FF080500860BFF34F8F5A
:10411000BFF36F8F10BD00002400002004ED00E00D
:1041200002498A6A026049694160704724000020A0
:1041300001490120486270472400002010B50C4658
:1041400050B1094909681831FFF7CCFE2046BDE897
:1041500010400121FEF738BB502080F31188BFF3D7
:104160004F8FBFF36F8FFEE72400002070B5144619
:104170000D4668B10A4909681831FFF7CBFE0CB14A
:104180004FF0FF3521462846BDE87040FEF71CBBC6
:10419000502080F31188BFF34F8FBFF36F8FFEE77E
:1041A0002400002030B587B00024039405AA04A998
:1041B00003A80494FFF772FEDDE903010094CDE942
:1041C0000110002315A11748059A00F06AFB164D4F
:1041D000002868631FD000F0E1FC012809D0401CD2
:1041E00019D1502080F31188BFF34F8FBFF36F8F29
:1041F000FEE7502080F31188BFF34F8FBFF36F8F1E
:104200004FF0FF3028630120E8616C6107B0BDE822
:10421000304000F045B807B030BD000049444C457F
:1042200000000000612A0008240000200248816B81
:10423000491C81637047000024000020164810B517
:10424000816B11B10121416210BD00214162816980
:10425000124A01E0B9B1491E01EB810352F8233043
:10426000002BF7D001EB810302EB830202F108047B
:1042700053685B685360A34201D15B685360DA689E
:104280000260816110BD502080F31188BFF34F8F11
:10429000BFF36F8FFEE70000240000201003002012
:1042A0001CB5264908780190FF20087008788DF821
:1042B00000009DF800009DF8002000F0F000904202
:1042C00007D0502080F31188BFF34F8FBFF36F8F5B
:1042D000FEE79DF800001A4B00F050001870072010
:1042E000986005E09DF8002052008DF80020401EE7
:1042F0009DF800201206F5D49860032807D05020BE
:1043000080F31188BFF34F8FBFF36F8FFEE74FF439
:1043100040709860019808700A48016841F4700183
:104320000160016841F070410160FFF761FE00200B
:104330005860FBF75DFF00201CBD000000E400E0BA
:104340009000002020ED00E0F8B517460E4605006D
:1043500014D0DEB105FB06F05030FEF7D7FD0400A7
:104360000AD0002084F8460004F150023B46314652
:1043700028460094FEF7A4FB2046F8BD502080F3A9
:104380001188BFF34F8FBFF36F8FFEE70020E3E785
:1043900038B5049D18B153B1CAB181B120E05020A5
:1043A00080F31188BFF34F8FBFF36F8FFEE750206C
:1043B00080F31188BFF34F8FBFF36F8FFEE750205C
:1043C00080F31188BFF34F8FBFF36F8FFEE739B1D2
:1043D000502080F31188BFF34F8FBFF36F8FFEE73C
:1043E00050241C46012384F846302B460094FEF7E7
:1043F00067FB204638BD000070B50D46040025D08F
:10440000FFF794FDD4E90F20216802FB00116160E1
:104410000021A1632168A1600A46D4E90F01401E72
:1044200000FB0121E16021464FF0FF3001F8440F0D
:10443000487004F110008DB1FFF746FD04F124002F
:10444000FFF742FDFFF792FD012070BD502080F381
:104450001188BFF34F8FBFF36F8FFEE721690029EB
:10446000F0D000F001FB0028ECD004494FF0805060
:104470000860BFF34F8FBFF36F8FE3E704ED00E0F9
:104480002DE9FF4782B01D468A464FF00008040020
:1044900003D0BAF1000F08D011E0502080F311884A
:1044A000BFF34F8FBFF36F8FFEE7206C38B1502002
:1044B00080F31188BFF34F8FBFF36F8FFEE7022D9C
:1044C0000AD1E06B012807D0502080F31188BFF398
:1044D0004F8FBFF36F8FFEE700F00EFA3F4F4FF0A4
:1044E00000094FF0805648B9049838B1502080F345
:1044F0001188BFF34F8FBFF36F8FFEE7FFF716FDF5
:10450000A06BE16B884207D3022D05D00498D0B18F
:10451000B8F1000F1AD01EE02A4651462046FEF799
:1045200028FA616A19B104F1240000F09DFA20B163
:104530003E60BFF34F8FBFF36F8FFFF717FD012072
:1045400006B0BDE8F087FFF711FD22E06846FFF7EF
:10455000E7FD4FF00108FFF709FDFFF767FEFFF7E2
:10456000E5FC94F94400401C01D184F8449094F98E
:104570004500401C01D184F84590FFF7F7FC04A9E1
:10458000684600F027F930B12046FEF789FC00F0BC
:10459000A3FA0020D4E7FFF7C9FCA06BE16B8842C7
:1045A00013D1FFF7E3FC04F110000499FFF7C6FDF7
:1045B0002046FEF775FC00F08FFA00289ED13E6081
:1045C000BFF34F8FBFF36F8F98E7FFF7CFFC204605
:1045D000FEF766FC00F080FA90E7000004ED00E0D2
:1045E0002DE9F0471F4690468946040003D0B9F1F3
:1045F000000F08D011E0502080F31188BFF34F8FD7
:10460000BFF36F8FFEE7206C38B1502080F3118824
:10461000BFF34F8FBFF36F8FFEE7022F0AD1E06B1E
:10462000012807D0502080F31188BFF34F8FBFF3CC
:104630006F8FFEE7FFF7EEFC5020EFF3118680F35B
:104640001188BFF34F8FBFF36F8FA06BE16B884270
:1046500006D3022F04D0002086F31188BDE8F0872E
:1046600094F945503A4649462046FEF782F9681CBF
:1046700004D06D1C84F845500120EDE7606A0028E5
:10468000FAD004F1240000F0EFF90028F4D0B8F1DA
:10469000000FF1D00121C8F80010EDE72DE9F74730
:1046A000002683B08A46040003D0BAF1000F08D078
:1046B00011E0502080F31188BFF34F8FBFF36F8F4D
:1046C000FEE7206C38B1502080F31188BFF34F8F84
:1046D000BFF36F8FFEE700F00FF9DFF8F4804FF0C3
:1046E00000094FF0805748B9059838B1502080F341
:1046F0001188BFF34F8FBFF36F8FFEE7FFF716FCF4
:10470000A56BC5B151462046FEF720F96D1EA56385
:10471000206950B104F1100000F0A6F928B1C8F8E2
:104720000070BFF34F8FBFF36F8FFFF71FFC0120A7
:1047300006B0BDE8F087059808B11EB106E0FFF7A6
:1047400015FC27E06846FFF7EBFC0126FFF70EFC9F
:10475000FFF76CFDFFF7EAFB94F94400401C01D120
:1047600084F8449094F94500401C01D184F84590A8
:10477000FFF7FCFB05A9684600F02CF8002820464E
:104780000AD0FEF78DFB00F0A7F92046FEF73AFAB3
:104790000028B3D00020CBE7FEF734FA90B104F143
:1047A00024000599FFF7CAFC2046FEF779FB00F0CC
:1047B00093F90028A2D1C8F80070BFF34F8FBFF360
:1047C0006F8F9BE72046FEF76BFB00F085F995E7BE
:1047D00004ED00E02DE9F0410C46050011D0C4B114
:1047E000FFF7A4FB174B5A696E682068911B471CA2
:1047F00017D02F689B6A9F4219D0964217D8012480
:1048000010E0502080F31188BFF34F8FBFF36F8FFC
:10481000FEE7502080F31188BFF34F8FBFF36F8FF7
:10482000FEE70024FFF7A2FB2046BDE8F0818842A6
:1048300005D9401A20602846FFF772FCF1E70020F6
:104840002060DCE7240000202DE9FF5F8346DDE9DE
:104850000E87994616468A469000FEF757FB0500DC
:104860001CD05C20FEF752FB040014D0002025630E
:1048700084F85900CDE90240CDE900874B46324625
:1048800051465846FEF72DF92046FDF7CBFF012093
:1048900004B0BDE8F09F2846FFF77CFB4FF0FF30E7
:1048A000F6E7F0B585B0DDE90B640A9DA6B1DCB191
:1048B0005C2700972663022684F85960002604AF1F
:1048C000CDE90246CDE90057FEF70BF92046FDF78A
:1048D000A9FF049805B0F0BD502080F31188BFF304
:1048E0004F8FBFF36F8FFEE7502080F31188BFF327
:1048F0004F8FBFF36F8FFEE70548C16919B1806B19
:1049000018B1002070470120704702207047000056
:104910002400002001484069704700002400002066
:104920002DE9F0412E4C0027A06B40B1206A401CBD
:104930002062606A00B101273846BDE8F0816669EF
:10494000761C666113D16068006838B1502080F32E
:104950001188BFF34F8FBFF36F8FFEE76068A168C8
:104960006160A060A06A401CA062FEF719FA206B8B
:10497000DFF87080864209D36068006880B16068A3
:10498000C068C568686886420DD220632068C06A26
:1049900000EB800158F821000128CAD90127C8E797
:1049A0004FF0FF30F1E7281DFFF764FAA86A18B14D
:1049B00005F11800FFF75EFAE86AA169884200D99C
:1049C000A06100EB800108EB8100291DFFF7A2FA2E
:1049D000E86A2168C96A8842CED30127CCE7000083
:1049E000240000201003002070B504004FF00001E7
:1049F00033D01B4D2868844207D0502080F31188A3
:104A0000BFF34F8FBFF36F8FFEE7206D38B1401EAD
:104A10002065E36CE26A9A421FD040B11DE050204D
:104A200080F31188BFF34F8FBFF36F8FFEE7201D18
:104A3000FFF720FAE06CE062C0F13800A061E06AA4
:104A4000A969884200D9A861064900EB800001EB02
:104A50008000211DFFF75EFA0121084670BD0000AD
:104A6000240000201003002070B5C068C46854B151
:104A700004F118000646FFF7FDF9144DA86B50B17C
:104A80003146134815E0502080F31188BFF34F8F53
:104A9000BFF36F8FFEE7201DFFF7ECF9E06AA9690D
:104AA000884200D9A8610B4900EB800001EB80002F
:104AB000211DFFF72FFAE06A2968C96A884202D9E6
:104AC0000120686270BD002070BD0000240000203D
:104AD00098070020100300202DE9F0472C4D0024FA
:104AE0002746A86B38B1FFF721FAA86B401EA863D0
:104AF000A86B40B146E0502080F31188BFF34F8F80
:104B0000BFF36F8FFEE72969224E0120D1B3A6F5CE
:104B1000916980463068E0B1F068C46804F118001B
:104B2000FFF7A8F9201DFFF7A5F9E06AA9698842F7
:104B300000D9A86100EB800109EB8100211DFFF77E
:104B4000E9F9E06A2968C96A8842E3D3C5F8248094
:104B5000E0E70CB1FEF724F92C6A4CB14FEA0806E5
:104B6000FFF7DEFE00B16E62641EF9D100202862FC
:104B7000686A38B10849012738070860BFF34F8FCA
:104B8000BFF36F8FFFF7F2F93846BDE8F0870000FA
:104B9000240000209807002004ED00E010B586B046
:104BA000FDF7A8FE114CA068B8B100200390049056
:104BB00005AA04A903A8FFF77BF9DDE90321022078
:104BC0008DE8070000230AA10B48059AFFF769FE4C
:104BD000E06010B106B0012010BD502080F31188B4
:104BE000BFF34F8FBFF36F8FFEE700006000002020
:104BF000546D7220537663007D2E00082DE9FF412D
:104C00001E46134602000A9D4FF0000016D0144CB9
:104C1000A768002F0FD0CDE900130292062917DAFA
:104C2000FFF76AFE02284FF000030FD0002269460A
:104C3000A068FFF725FC04B0BDE8F081502080F3A8
:104C40001188BFF34F8FBFF36F8FFEE72A46EEE761
:104C50000023324669463846FFF7C2FCEBE7000006
:104C60006000002000850008000000000000000037
:104C7000000000000000000000020000180000001A
:104C80000000000000000000E884000800000000B0
:104C90000000000000000000000000000004000010
:104CA000080000000000000000000000F48400087C
:104CB00000000000000000000000000000000000F4
:104CC00000020000080000000000000000000000DA
:104CD000C884000800000000000000000000000080
:104CE0000000000000000000D88400080000000060
:104CF00000000000000000000000000000000000B4
:104D0000010202030405060708090A0B0C0D0E0F29
:104D1000101000000000000000000102030406075C
:104D2000080900000000010203049B0003020505BE
:104D30000305061212FEFC0BFD0CFC01CF03C4059B
:104D40006F20060030A2002108C1FDA1788804224E
:104D500008C4B8A2887C0A23188811A28BC2288CA8
:104D6000A261888A51188551340C51310AA30C2450
:104D700017A7F1A10B07258AA4480A93744DC248CE
:104D80008AA4CA2066002519A8F1A1D192A81225EB
:104D9000512553F2388F232D8992A81245A202265D
:104DA000178911AA5AB3300BB334C9C328896A4989
:104DB000354AB34AB6052708625CA3501400280C94
:104DC0000496998B6A51D68F5958290D04969908E3
:104DD0006B61D64F5954032A0F2751A28BB3A8D227
:104DE000B6254DB538032B166B15B6CDB11CCBB11E
:104DF0001C4B87839A633996633996022C0882D8B4
:104E0000A11812052D0724709618022E0742F8A14A
:104E100018022F0F0696A12DA6C5B49816D3629A34
:104E200002300D6715A2DA2AA95F932C9B00310A84
:104E3000651DA28AC6FE3408320D6715A2DA2A69FA
:104E40009CF679180233106715A219A2308FD36C23
:104E50002F8BD1100134116815A68DD5248CB24E3C
:104E600061340C6A5E02350F6715A238C8E5412F20
:104E7000C76234440036116715A21AA234AE4C5AE8
:104E8000925A932C9B00370D6715A238C4695C8D2C
:104E9000AB710D38126715A2DA2AA99A64D956495E
:104EA000D524CB260039106715A2DA2AA935C9A462
:104EB00025AE4643043A07E1189248033B0701F93F
:104EC0009148053C0F49F9B14762D55D8774288741
:104ED00074483D0A8A54B278C8C9C3213E104AF5C5
:104EE000B1C8311DD3311DD321D93B023F0E8615E8
:104EF000A2D2A224145BEBB4340240162831A61AC5
:104F0000B230492631518644891265488AD9100148
:104F100041156911AACC913C8993340BB36C18A24A
:104F2000344A935C0F42106711A2B8A48EC9208541
:104F3000496A1D860443106811A61AA43489F3EE49
:104F4000489E46830244106811A638A5499AC4BEFB
:104F50002669324C00450E6711A238C8CDC31237FE
:104F60000F4300460C6711A238C8CDC3127706471D
:104F7000156911AA1AA638C9732447C241D79338B4
:104F800089A36101480C6811A6883D0F87D873007A
:104F9000490963119258A2FE324A0AC4A98DD2FA75
:104FA000DF86044B136711A248C5248B6A49A826E3
:104FB000619495C2240D4C0A6711A288FBE7610831
:104FC0004D1A6B11B2D0877C4913254DA42C92B297
:104FD000484B322DC9C4500C75284E116811A68853
:104FE000E55509A54C8BC4449DCD014F176A11AE00
:104FF0001AB6388A931CD1111DD1111D294771365B
:105000004C00500D6711A2B8A45E8721899B015105
:1050100015A9D1A91AB4344A93DC7B12B525D9A0BD
:105020002339940052106711A2B8A48EC920854973
:1050300098A4D600530F6711A21AA250CEF3BD9CBC
:1050400026830454156911AA78CC911CC9911CC9F6
:10505000911CC9911CC99110550C6811A688FD734B
:105060001266430456156911AAC8F5248DD228CDBD
:105070008A599AC4499E232100571F6D11BA48537B
:1050800035552B599245599245599255B2244CB2F7
:10509000244CB2242DA7190058146911AAC89334BE
:1050A000AB26798EE4499CA45935C9035910671180
:1050B000A248D5248BB24A98A47137005A0E6811C1
:1050C000A638E8711EE771E761105B0AC4F9A11800
:1050D000B4FEB7215C10C7F1A188F3388FF3388F85
:1050E000F3388F035D0A03929598FA7F1A025E09DE
:1050F00065F8AACA925A005F072A94B17808600737
:10510000421CA3880261110711A219A2308E062544
:105110004CC22493A600620F6711A2885B262D491A
:105120005DB7249900630C06119E9A32B5398B162F
:1051300000640E6711A26E5A6AAB6B92494B006510
:105140000E0711A2DA2AE970CEC3684800660C6423
:10515000119652B26848B23E01671067B1A15A6A0F
:10516000AB6B92494B9C64D904680C6711A2885BB5
:10517000262D497D0D69096211922929FD006A0ACF
:10518000C3AD8D2A4AFD69016B106711A2881B937C
:105190002CAA8D51560A93346C0761159278106DC4
:1051A000120B11B248A645338662288662288662B1
:1051B000016E0A06119E48164DF4316F0D0711A2BB
:1051C000DA2AA96B92651300701468B1A550362DC8
:1051D0004A9334499334D1A264CBCB00711368B1A4
:1051E000A55A944C499334499334CAB4256F01723B
:1051F0000A05119A48062DEC11730C06119E19929E
:1052000050764C8604740B45119A09B341097B1DF5
:1052100075110711A2109330099330099330C9A476
:105220002576100711A248D5248BB228AB84499A61
:105230000177180B11B2084331D4922C8992A892AD
:1052400025519225591AA61100780F0711A24893EB
:10525000AC92C6699255D200791267B1A148D524A3
:105260008BB24A98A4711A872A007A0A06119EB84E
:1052700086BD0E037B0C0696A19BD21EB558ED7918
:105280007C07019A91F8217D0E0696A190D39E632A
:10529000494CBB89007E084734AB9934058011879F
:1052A00011A2DB2A713A68E9A0C5F52C5B00000069
:1052B000000C59390E85706B0FF2FFFF2013082E7A
:1052C000D4C2F8204E00082FD0C2F8014E0A1FEFBA
:1052D000F1C1CEF11CCFF11CCFF11C1F861CC9F10E
:1052E0001CCFF11CCFF11CCF91E1034E0B21EFD16C
:1052F000C1F839C7733CC7733CCAC12CC7C21C4A2A
:105300007324CD911CCFF11CCFF11C014E0D23EE67
:10531000D1C1191E7224877334877354C9A124CA5A
:10532000A32CCDC22C4C9334957338877338064E1A
:105330002A200FD2C1CFF11C4E7230CBA134AF86E0
:105340002535D5733CC7733CC7733CC7733C074EC8
:105350002D1E0BDAC1CDB11CCBB174780CC5500C2D
:10536000C5500C8787B09A6339966329004E3A245A
:105370000DD2C12FE6489623598EC6C3731AA77162
:1053800092A55994665198673912E550922775286D
:10539000024E3B1FEFF1C1CE2939D3F09023399E45
:1053A000E3399E43C34187723CC7733CC7F3E103B3
:1053B0004E481DEDF5C1CED11CCCD11CCCF2300E27
:1053C000E3B41DCCC1723147A2E12987024E4B1EC6
:1053D000EEF5C1CDF11CCEE9C33B9AA3399AA339AE
:1053E0009AA3399A833A18E550381C4E5F25EFF19D
:1053F000C1CFF11CAB6325395BE2644BA72C53B2E0
:105400007256CE927216E5599CE5581D0B878300A3
:105410004E66210ED2C1CE7228CC91341BEE50962E
:1054200043590E65399465C383DCBF2579982339C8
:10543000004E861EECD5C1F88EE5588EE5908EE5BF
:10544000600EE6600EE6600EE6600E253916034E2D
:105450008B250FD2C1CFF17CF89E43C3416C1C0E4B
:105460003A9443C34187C268F81E86C341877234A9
:10547000C9E11C014E8E20EFD1C11A0E3A94E339D6
:105480009EE3F9F03DC7733CC7733CC7733C479339
:105490001CCE11004E911CEFD1C11A0E3A7F1E3E58
:1054A000E7708EE7709823711D0987C71CCAF10841
:1054B0004E921DCFF1C1191EE21CCFF11C1E063DFC
:1054C000CEE37A5C1F061DCFE11C4F870F4E9B2455
:1054D000EFF1C1CD72AC1E654D4B1446D91A656112
:1054E000540BA36448C2411E949CDB70E73C3C24EF
:1054F000004EA4220FD2C1CE29399E0FDF89799C9C
:1055000023611EB546719683490EE77092635A2E49
:105510006B3A364EBA230FD2C1CFF11CCFF11CCF5C
:10552000F11C4E7234C9C12CC7EA509A23695ECD72
:10553000A12C07931C0E4ECE2C0FD2C14C7324CD40
:10554000913447D21C497324CD913447D21C09931E
:1055500038C99238AAC4519285691656A3304EC2F2
:105560001C094ED62D0FD2C1AC43610E25518E447D
:1055700015358A94504AA45052A22C19A27E8D5AF5
:10558000A38A1A15B328CFA23CCB8641CB41004E4B
:10559000E5240DDAC187E2342B666156CCEA4896E1
:1055A00023591EE6611E46599A844926665198D6AB
:1055B000B31C094EEA280FD2C1CC722C8CE224AA6B
:1055C0004669290DB5AA564CB2A630C9C3244F73FB
:1055D00024CD9130C9B372945672014EEC2C0ED288
:1055E000C18C72AC0E65C990457116C591144752B5
:1055F0009C9462A99C457116C5591467519C4571CC
:1056000016854916A509004EF6270FD2C14C732402
:10561000CD91A89E4579360C9994C5529626C552CF
:105620009C27C3218BF3388FF3388FF338044EFD5A
:105630002D0FD2C18CF32CCAB3280EB3340B432DDB
:10564000CDA4384A2AC32285591A666998A561965D
:1056500066619A85699425699266004F182C0FD26D
:10566000C1CCA23C2B67D5308792E11089492C260A
:105670006912266114267998E459946751D6949555
:10568000B2A670C8921C024F1A230FD2C1CFF11CD0
:105690004E7230CBA134D6256918229DDBF090E7FD
:1056A000700EA7797538A83912014F202A0FD2C180
:1056B000AC43610E8539120D435A177344190E49D4
:1056C000318EB21C8B8621CD91342B87499EE648C2
:1056D0009CC721004F462B0FD2C1CCF11C4F8641F5
:1056E0008CE2308A3329CEA4619092284EA272189F
:1056F000C561340C621487399EE3C970C872104FBB
:105700005C2D0FD2C18C7230CAC128C7B261D0A241
:105710002447A4244794284FC2412AE65098436165
:105720000E85C35887C21C0A73288C014F602B0F4B
:10573000D2C1CC72AC8ED5A16C18B47224C59912AA
:10574000A6491C465994A459548CB2288CB2963060
:105750002BE76192A729004FDD280FD2C1CCF1645D
:1057600018E2242DA5A53494862154E3242D25C3C5
:1057700031DCB3A41CB5265951ACA53992A6004F13
:10578000E12B0FD2C1AC43698E24C32DC773581BC4
:10579000864C47931C8CB26108733CC7B36108B355
:1057A00034CCD2301B86304B130050A82F0FD2C1FF
:1057B0008BF338D706252A4659142699380C8A1EA9
:1057C00026439647D1B04549AD2465A56CD0A2A427
:1057D0005692B252366871960050CF2F0FD2C18CBC
:1057E00072301AF4248C93E1A8645126D5326918DA
:1057F000A4248CA32CC9C24469CD22399194344C81
:10580000AA59544C945A35055145240FD2C1CE297A
:10581000F9F035C77338CDABC341CFA23CCBB13A19
:105820005687C22C0DB330CD227D48005146290E3B
:10583000D6C1CC72284BB3A65A1426599226590EBB
:1058400065BA96A44916655156C9EA48580B4B6982
:1058500098E4C30E035165240FD2C1CD293925C761
:10586000733C87931C4D7234C9C12CC7EA509A23EC
:10587000695ECD9130C7A21C15516C24EFF1C14770
:105880007230CAC128C7C21C0A7324AE2361354ACC
:105890006335C7B31C4AF3381E0E719E0151732144
:1058A0000FD2C1CBCB799AD387830EE5788EE7C32D
:1058B000F71C4E7234C9C12C87D258977450517658
:1058C000260FD2C14C73244D8787B48EA439320C75
:1058D0003992E6489A23C39023698EA4E1F09D5A39
:1058E000AFE650045185240DD6C1CED11C8D87075B
:1058F000355553351593508C322D8CA43851F244C4
:1059000007755087121D4B00518C25EFD1C11BA28A
:10591000218D5AA3D6A8356A8D9A866F516BD41AF9
:10592000B546AD516B946461A4B4A5590651FA1FF4
:105930000DD6C1CED13C2C85A5B0149686831EE62B
:10594000391AA7A99AAAA99A0E0F3A1A51FB1E0F43
:10595000D2C1CFF11CCFA1E1A043399EE3F9F03DC4
:10596000C77328EC7F1C0E3A1E015206260FD2C1C7
:105970008772AC8E853992E6D51CCA723089864111
:105980004BC31C0A7328CC913447D23C2E26711984
:105990005207260ED2C1CBE11CCE86214BB36A96AC
:1059A0000D5136A85935AB66A55A25AB696116D697
:1059B000D3384BE234025220390FD2C1C793211998
:1059C000C2244AA2308992A8524AA24A29892AA509
:1059D00024AA0C2F4D4954292551A59444955212BF
:1059E000554A49142689128562524AC22C4C0052EB
:1059F000302C0ED2C18787435847B238AA959234CB
:105A00008A864312855912856914A651320C513188
:105A10008DC21C09077198933A960052362A0ED20D
:105A2000C1CDA37A548F862189922C8CD2301A9EB4
:105A3000D2304AC3281A8624EA1275894A4A185570
:105A4000D296344E005237320FD2C1C7A36110A391
:105A5000388CE2301A0625AA85512D8C6A61140D06
:105A6000831225A54A94942A5152AA4452A48459D7
:105A700094A4719AC41500524D280FD2C1CBCB7992
:105A80001A0EDF69831A6651318B8A8354CCA26265
:105A9000161507A998A5619686492D09A3340352C6
:105AA0006A240FD2C14CC3E13B6D50C32C2A0E5265
:105AB000318B8A8354CCD2301275E2F01ED7D34A90
:105AC000A8870052A1240FD2C1CDF11C1E06598D0A
:105AD000A348077550D2A5CC986EC31D0A7324CD78
